{
  "transactions": [
    {
      "hash": "0x27cc84bf097eccdde28463fee66d6385ba74764f3bac66fe7a458d3c4c2f328a",
      "transactionType": "CALL",
      "contractName": null,
      "contractAddress": "0x803d92fa9c82d533e808e6038a84ebca5e36fc1c",
      "function": "createGame(uint256)",
      "arguments": [
        "1000000000000000"
      ],
      "transaction": {
        "from": "0xdc89f9576281e87f78eef7dddebd61f7e7d82f82",
        "to": "0x803d92fa9c82d533e808e6038a84ebca5e36fc1c",
        "gas": "0x25746",
        "value": "0x38d7ea4c68000",
        "input": "0x48e837b900000000000000000000000000000000000000000000000000038d7ea4c68000",
        "nonce": "0x19d",
        "chainId": "0xaa36a7"
      },
      "additionalContracts": [],
      "isFixedGasLimit": false
    },
    {
      "hash": "0x9ea308cdbb62252be1087f14e9a932e3b0df2fe281df21fffd31be5242e91e80",
      "transactionType": "CALL",
      "contractName": null,
      "contractAddress": "0x803d92fa9c82d533e808e6038a84ebca5e36fc1c",
      "function": "joinGame(uint32)",
      "arguments": [
        "20"
      ],
      "transaction": {
        "from": "0x230449c178b6340c9e94d3b97b28b7efada1a012",
        "to": "0x803d92fa9c82d533e808e6038a84ebca5e36fc1c",
        "gas": "0x1827d",
        "value": "0x38d7ea4c68000",
        "input": "0x2915724f0000000000000000000000000000000000000000000000000000000000000014",
        "nonce": "0xb",
        "chainId": "0xaa36a7"
      },
      "additionalContracts": [],
      "isFixedGasLimit": false
    },
    {
      "hash": "0x4415df744e119880609e306f7122e29b0a58a308af1099394b7459f265ea202b",
      "transactionType": "CALL",
      "contractName": null,
      "contractAddress": "0x803d92fa9c82d533e808e6038a84ebca5e36fc1c",
      "function": "vote(uint32,uint8)",
      "arguments": [
        "20",
        "1"
      ],
      "transaction": {
        "from": "0xdc89f9576281e87f78eef7dddebd61f7e7d82f82",
        "to": "0x803d92fa9c82d533e808e6038a84ebca5e36fc1c",
        "gas": "0xbec7",
        "value": "0x0",
        "input": "0x9767fb7200000000000000000000000000000000000000000000000000000000000000140000000000000000000000000000000000000000000000000000000000000001",
        "nonce": "0x19e",
        "chainId": "0xaa36a7"
      },
      "additionalContracts": [],
      "isFixedGasLimit": false
    },
    {
      "hash": "0xa4702c60d25923a83488ee3c11beacc7961d2c8f3370547afbad324de963378c",
      "transactionType": "CALL",
      "contractName": null,
      "contractAddress": "0x803d92fa9c82d533e808e6038a84ebca5e36fc1c",
      "function": "vote(uint32,uint8)",
      "arguments": [
        "20",
        "1"
      ],
      "transaction": {
        "from": "0x230449c178b6340c9e94d3b97b28b7efada1a012",
        "to": "0x803d92fa9c82d533e808e6038a84ebca5e36fc1c",
        "gas": "0xb531",
        "value": "0x0",
        "input": "0x9767fb7200000000000000000000000000000000000000000000000000000000000000140000000000000000000000000000000000000000000000000000000000000001",
        "nonce": "0xc",
        "chainId": "0xaa36a7"
      },
      "additionalContracts": [],
      "isFixedGasLimit": false
    }
  ],
  "receipts": [
    {
      "status": "0x1",
      "cumulativeGasUsed": "0x9c68c7",
      "logs": [
        {
          "address": "0x803d92fa9c82d533e808e6038a84ebca5e36fc1c",
          "topics": [
            "0x48c63a2766cb910ba33c51568f49d86480f13c99942424849a094ff86b2ec461",
            "0x0000000000000000000000000000000000000000000000000000000000000014"
          ],
          "data": "0x000000000000000000000000dc89f9576281e87f78eef7dddebd61f7e7d82f8200000000000000000000000000000000000000000000000000038d7ea4c68000",
          "blockHash": "0xe016fabf5e692a6aca737f431d927e3ac6df86d7f24de1a0b4dd043fb1362912",
          "blockNumber": "0x7454bc",
          "transactionHash": "0x27cc84bf097eccdde28463fee66d6385ba74764f3bac66fe7a458d3c4c2f328a",
          "transactionIndex": "0x6c",
          "logIndex": "0x9d",
          "removed": false
        }
      ],
      "logsBloom": "0x00000000000000000000000000000000000000080000000000000000000000000000000000000000000000000000000000002000000000000000000000000000000000000000000000000000000020000000000000000000000000000000000000004080000000000000000000000000000000000000000000000000000000000000000000000000000000000000000000000000000400000000000000000000000000000000000020000000000000000000000000000000000000000000800000000000000000000000000000000000000000000000001000000000000000000000000000000000000000000000000000000000000000000000000000000000",
      "type": "0x2",
      "transactionHash": "0x27cc84bf097eccdde28463fee66d6385ba74764f3bac66fe7a458d3c4c2f328a",
      "transactionIndex": "0x6c",
      "blockHash": "0xe016fabf5e692a6aca737f431d927e3ac6df86d7f24de1a0b4dd043fb1362912",
      "blockNumber": "0x7454bc",
      "gasUsed": "0x199c3",
      "effectiveGasPrice": "0x90f54d6d",
      "from": "0xdc89f9576281e87f78eef7dddebd61f7e7d82f82",
      "to": "0x803d92fa9c82d533e808e6038a84ebca5e36fc1c",
      "contractAddress": null
    },
    {
      "status": "0x1",
      "cumulativeGasUsed": "0xf76eda",
      "logs": [
        {
          "address": "0x803d92fa9c82d533e808e6038a84ebca5e36fc1c",
          "topics": [
            "0x8b3d4a4e7362caeefb788f4cb42e64dd1ea226941bc3d0cb73863595e7a401d0",
            "0x0000000000000000000000000000000000000000000000000000000000000014"
          ],
          "data": "0x000000000000000000000000230449c178b6340c9e94d3b97b28b7efada1a012",
          "blockHash": "0xbc8b2efec8cb7831e1fe926ccd2366ef1d24c23dfeeda3284af5317b913dcc53",
          "blockNumber": "0x7454bd",
          "transactionHash": "0x9ea308cdbb62252be1087f14e9a932e3b0df2fe281df21fffd31be5242e91e80",
          "transactionIndex": "0x5b",
          "logIndex": "0x135",
          "removed": false
        }
      ],
      "logsBloom": "0x00000000000000000000000000000000000000080100000000000000000000000000000000000000000000000000000000002000000000000000000000000000000000000000000000000000000000000000000000000000000000000000000000004000000000000000000000000000080000000000000000000000000000000000000000000000000000000000000000000000000400000000000000000000000000000000000020000000010000000000000000000000000000000000800000000000000000000000000000000000000000000000000000000000000000000000000000000000000000000000000000000000000000000000000000000000",
      "type": "0x2",
      "transactionHash": "0x9ea308cdbb62252be1087f14e9a932e3b0df2fe281df21fffd31be5242e91e80",
      "transactionIndex": "0x5b",
      "blockHash": "0xbc8b2efec8cb7831e1fe926ccd2366ef1d24c23dfeeda3284af5317b913dcc53",
      "blockNumber": "0x7454bd",
      "gasUsed": "0x117d0",
      "effectiveGasPrice": "0x8c681fb7",
      "from": "0x230449c178b6340c9e94d3b97b28b7efada1a012",
      "to": "0x803d92fa9c82d533e808e6038a84ebca5e36fc1c",
      "contractAddress": null
    },
    {
      "status": "0x1",
      "cumulativeGasUsed": "0x115e312",
      "logs": [
        {
          "address": "0x803d92fa9c82d533e808e6038a84ebca5e36fc1c",
          "topics": [
            "0xec02d320e4714a639fcd2c2a0591850da6af03797fe598fd29865b8c9f8fe738",
            "0x0000000000000000000000000000000000000000000000000000000000000014"
          ],
          "data": "0x0000000000000000000000000000000000000000000000000000000000000001",
          "blockHash": "0x89884c8b03f6ea6aa1956d375721827ee1f35290f905dc49321384ebf7db9d7a",
          "blockNumber": "0x7454be",
          "transactionHash": "0x4415df744e119880609e306f7122e29b0a58a308af1099394b7459f265ea202b",
          "transactionIndex": "0x74",
          "logIndex": "0xa8",
          "removed": false
        }
      ],
      "logsBloom": "0x00000002000000000000000000000000000000080000000000000000000000000000000000000000000000000000000000002000000000000000000000000000000000000000000000000000000000000000000020000000000000000000000000004000000000000000000000000000000000000000000000000000000000000000000000000000000000000000000000000000000400000000000000000000000000000000000020000000000000000000000000000000000000000000800000000000000000000000000000000000000000000000000000000000000000000000000000000000000000000000000000000000000008000000000000000000",
      "type": "0x2",
      "transactionHash": "0x4415df744e119880609e306f7122e29b0a58a308af1099394b7459f265ea202b",
      "transactionIndex": "0x74",
      "blockHash": "0x89884c8b03f6ea6aa1956d375721827ee1f35290f905dc49321384ebf7db9d7a",
      "blockNumber": "0x7454be",
      "gasUsed": "0x8273",
      "effectiveGasPrice": "0x8e3e130a",
      "from": "0xdc89f9576281e87f78eef7dddebd61f7e7d82f82",
      "to": "0x803d92fa9c82d533e808e6038a84ebca5e36fc1c",
      "contractAddress": null
    },
    {
      "status": "0x1",
      "cumulativeGasUsed": "0x12d39a1",
      "logs": [
        {
          "address": "0x803d92fa9c82d533e808e6038a84ebca5e36fc1c",
          "topics": [
            "0xec02d320e4714a639fcd2c2a0591850da6af03797fe598fd29865b8c9f8fe738",
            "0x0000000000000000000000000000000000000000000000000000000000000014"
          ],
          "data": "0x0000000000000000000000000000000000000000000000000000000000000001",
          "blockHash": "0x9030633b586b13cb5985752606839568c5d3984d3408d9c61dcf3930a85ef613",
          "blockNumber": "0x7454bf",
          "transactionHash": "0xa4702c60d25923a83488ee3c11beacc7961d2c8f3370547afbad324de963378c",
          "transactionIndex": "0x52",
          "logIndex": "0x131",
          "removed": false
        }
      ],
      "logsBloom": "0x00000002000000000000000000000000000000080000000000000000000000000000000000000000000000000000000000002000000000000000000000000000000000000000000000000000000000000000000020000000000000000000000000004000000000000000000000000000000000000000000000000000000000000000000000000000000000000000000000000000000400000000000000000000000000000000000020000000000000000000000000000000000000000000800000000000000000000000000000000000000000000000000000000000000000000000000000000000000000000000000000000000000008000000000000000000",
      "type": "0x2",
      "transactionHash": "0xa4702c60d25923a83488ee3c11beacc7961d2c8f3370547afbad324de963378c",
      "transactionIndex": "0x52",
      "blockHash": "0x9030633b586b13cb5985752606839568c5d3984d3408d9c61dcf3930a85ef613",
      "blockNumber": "0x7454bf",
      "gasUsed": "0x832f",
      "effectiveGasPrice": "0x9b6db34c",
      "from": "0x230449c178b6340c9e94d3b97b28b7efada1a012",
      "to": "0x803d92fa9c82d533e808e6038a84ebca5e36fc1c",
      "contractAddress": null
    }
  ],
  "libraries": [],
  "pending": [],
  "returns": {},
  "timestamp": 1738494757,
  "chain": 11155111,
  "commit": "a46c5dd"
}