{
  "transactions": [
    {
      "hash": "0x0153e62414633e82ce71c30b4a3633765516aea12596dcdf86aa528b2c23c9e2",
      "transactionType": "CALL",
      "contractName": null,
      "contractAddress": "0x803d92fa9c82d533e808e6038a84ebca5e36fc1c",
      "function": "createGame(uint256)",
      "arguments": [
        "1000000000000000"
      ],
      "transaction": {
        "from": "0xdc89f9576281e87f78eef7dddebd61f7e7d82f82",
        "to": "0x803d92fa9c82d533e808e6038a84ebca5e36fc1c",
        "gas": "0x25746",
        "value": "0x38d7ea4c68000",
        "input": "0x48e837b900000000000000000000000000000000000000000000000000038d7ea4c68000",
        "nonce": "0x19b",
        "chainId": "0xaa36a7"
      },
      "additionalContracts": [],
      "isFixedGasLimit": false
    },
    {
      "hash": "0xdb89d7789c32effdddc41752dbd582035372a04d6cd2a9a925c1a5b15a960ddc",
      "transactionType": "CALL",
      "contractName": null,
      "contractAddress": "0x803d92fa9c82d533e808e6038a84ebca5e36fc1c",
      "function": "joinGame(uint32)",
      "arguments": [
        "17"
      ],
      "transaction": {
        "from": "0x230449c178b6340c9e94d3b97b28b7efada1a012",
        "to": "0x803d92fa9c82d533e808e6038a84ebca5e36fc1c",
        "gas": "0x1827d",
        "value": "0x38d7ea4c68000",
        "input": "0x2915724f0000000000000000000000000000000000000000000000000000000000000011",
        "nonce": "0x8",
        "chainId": "0xaa36a7"
      },
      "additionalContracts": [],
      "isFixedGasLimit": false
    },
    {
      "hash": "0x64574f8eb2c419036b4ca5c20adc3bc506d6ec3e15b4ed92a530c13681645957",
      "transactionType": "CALL",
      "contractName": null,
      "contractAddress": "0x803d92fa9c82d533e808e6038a84ebca5e36fc1c",
      "function": "vote(uint32,uint8)",
      "arguments": [
        "17",
        "1"
      ],
      "transaction": {
        "from": "0xdc89f9576281e87f78eef7dddebd61f7e7d82f82",
        "to": "0x803d92fa9c82d533e808e6038a84ebca5e36fc1c",
        "gas": "0xbec7",
        "value": "0x0",
        "input": "0x9767fb7200000000000000000000000000000000000000000000000000000000000000110000000000000000000000000000000000000000000000000000000000000001",
        "nonce": "0x19c",
        "chainId": "0xaa36a7"
      },
      "additionalContracts": [],
      "isFixedGasLimit": false
    },
    {
      "hash": "0xf0edd1096a0eba84018a069738a40d6bfc6e628133c869325a3a0863c8472918",
      "transactionType": "CALL",
      "contractName": null,
      "contractAddress": "0x803d92fa9c82d533e808e6038a84ebca5e36fc1c",
      "function": "vote(uint32,uint8)",
      "arguments": [
        "17",
        "1"
      ],
      "transaction": {
        "from": "0x230449c178b6340c9e94d3b97b28b7efada1a012",
        "to": "0x803d92fa9c82d533e808e6038a84ebca5e36fc1c",
        "gas": "0xb531",
        "value": "0x0",
        "input": "0x9767fb7200000000000000000000000000000000000000000000000000000000000000110000000000000000000000000000000000000000000000000000000000000001",
        "nonce": "0x9",
        "chainId": "0xaa36a7"
      },
      "additionalContracts": [],
      "isFixedGasLimit": false
    }
  ],
  "receipts": [
    {
      "status": "0x1",
      "cumulativeGasUsed": "0xd1f22d",
      "logs": [
        {
          "address": "0x803d92fa9c82d533e808e6038a84ebca5e36fc1c",
          "topics": [
            "0x48c63a2766cb910ba33c51568f49d86480f13c99942424849a094ff86b2ec461",
            "0x0000000000000000000000000000000000000000000000000000000000000011"
          ],
          "data": "0x000000000000000000000000dc89f9576281e87f78eef7dddebd61f7e7d82f8200000000000000000000000000000000000000000000000000038d7ea4c68000",
          "blockHash": "0x4ba162189efc84dfe651b6fa84e7b93a971cbc54f0ef39d469ca8ea59c927861",
          "blockNumber": "0x74549f",
          "transactionHash": "0x0153e62414633e82ce71c30b4a3633765516aea12596dcdf86aa528b2c23c9e2",
          "transactionIndex": "0x90",
          "logIndex": "0xf7",
          "removed": false
        }
      ],
      "logsBloom": "0x00000000000000000000000000000000000000080000000000000000000000000000000000000000000000000000000000000000000000000000000000000000000000000000000000000000000020000000000000000000000000000000000000004080000000000000000000000000000000004000000000000000000000000000000000000000000000000000000000000000000000000000000000000000000000000000000000000000000000000000000000000000000000000400800000001000000000000000000000000000000000000000001000000000000000000000000000000000000000000000000000000000000000000000000000000000",
      "type": "0x2",
      "transactionHash": "0x0153e62414633e82ce71c30b4a3633765516aea12596dcdf86aa528b2c23c9e2",
      "transactionIndex": "0x90",
      "blockHash": "0x4ba162189efc84dfe651b6fa84e7b93a971cbc54f0ef39d469ca8ea59c927861",
      "blockNumber": "0x74549f",
      "gasUsed": "0x199c3",
      "effectiveGasPrice": "0x942f220b",
      "from": "0xdc89f9576281e87f78eef7dddebd61f7e7d82f82",
      "to": "0x803d92fa9c82d533e808e6038a84ebca5e36fc1c",
      "contractAddress": null
    },
    {
      "status": "0x1",
      "cumulativeGasUsed": "0x1032a4c",
      "logs": [
        {
          "address": "0x803d92fa9c82d533e808e6038a84ebca5e36fc1c",
          "topics": [
            "0x8b3d4a4e7362caeefb788f4cb42e64dd1ea226941bc3d0cb73863595e7a401d0",
            "0x0000000000000000000000000000000000000000000000000000000000000011"
          ],
          "data": "0x000000000000000000000000230449c178b6340c9e94d3b97b28b7efada1a012",
          "blockHash": "0x3159727c8a61fdde143b251264630ee3ed187f310729a0f0cd3522f59508c7f7",
          "blockNumber": "0x7454a0",
          "transactionHash": "0xdb89d7789c32effdddc41752dbd582035372a04d6cd2a9a925c1a5b15a960ddc",
          "transactionIndex": "0x5e",
          "logIndex": "0x176",
          "removed": false
        }
      ],
      "logsBloom": "0x00000000000000000000000000000000000000080100000000000000000000000000000000000000000000000000000000000000000000000000000000000000000000000000000000000000000000000000000000000000000000000000000000004000000000000000000000000000080000004000000000000000000000000000000000000000000000000000000000000000000000000000000000000000000000000000000000000000010000000000000000000000000000000400800000001000000000000000000000000000000000000000000000000000000000000000000000000000000000000000000000000000000000000000000000000000",
      "type": "0x2",
      "transactionHash": "0xdb89d7789c32effdddc41752dbd582035372a04d6cd2a9a925c1a5b15a960ddc",
      "transactionIndex": "0x5e",
      "blockHash": "0x3159727c8a61fdde143b251264630ee3ed187f310729a0f0cd3522f59508c7f7",
      "blockNumber": "0x7454a0",
      "gasUsed": "0x117d0",
      "effectiveGasPrice": "0xa5b749b4",
      "from": "0x230449c178b6340c9e94d3b97b28b7efada1a012",
      "to": "0x803d92fa9c82d533e808e6038a84ebca5e36fc1c",
      "contractAddress": null
    },
    {
      "status": "0x1",
      "cumulativeGasUsed": "0x5a64c0",
      "logs": [
        {
          "address": "0x803d92fa9c82d533e808e6038a84ebca5e36fc1c",
          "topics": [
            "0xec02d320e4714a639fcd2c2a0591850da6af03797fe598fd29865b8c9f8fe738",
            "0x0000000000000000000000000000000000000000000000000000000000000011"
          ],
          "data": "0x0000000000000000000000000000000000000000000000000000000000000001",
          "blockHash": "0x4f069edc7338957ae31e6753e6099b6fcd6041a12f84eaea9464bc72f57a3793",
          "blockNumber": "0x7454a1",
          "transactionHash": "0x64574f8eb2c419036b4ca5c20adc3bc506d6ec3e15b4ed92a530c13681645957",
          "transactionIndex": "0x44",
          "logIndex": "0x62",
          "removed": false
        }
      ],
      "logsBloom": "0x00000002000000000000000000000000000000080000000000000000000000000000000000000000000000000000000000000000000000000000000000000000000000000000000000000000000000000000000020000000000000000000000000004000000000000000000000000000000000004000000000000000000000000000000000000000000000000000000000000000000000000000000000000000000000000000000000000000000000000000000000000000000000000400800000001000000000000000000000000000000000000000000000000000000000000000000000000000000000000000000000000000000008000000000000000000",
      "type": "0x2",
      "transactionHash": "0x64574f8eb2c419036b4ca5c20adc3bc506d6ec3e15b4ed92a530c13681645957",
      "transactionIndex": "0x44",
      "blockHash": "0x4f069edc7338957ae31e6753e6099b6fcd6041a12f84eaea9464bc72f57a3793",
      "blockNumber": "0x7454a1",
      "gasUsed": "0x8273",
      "effectiveGasPrice": "0xadb28002",
      "from": "0xdc89f9576281e87f78eef7dddebd61f7e7d82f82",
      "to": "0x803d92fa9c82d533e808e6038a84ebca5e36fc1c",
      "contractAddress": null
    },
    {
      "status": "0x1",
      "cumulativeGasUsed": "0x6e5580",
      "logs": [
        {
          "address": "0x803d92fa9c82d533e808e6038a84ebca5e36fc1c",
          "topics": [
            "0xec02d320e4714a639fcd2c2a0591850da6af03797fe598fd29865b8c9f8fe738",
            "0x0000000000000000000000000000000000000000000000000000000000000011"
          ],
          "data": "0x0000000000000000000000000000000000000000000000000000000000000001",
          "blockHash": "0x6b2d61291713097c02ff8499a6eaab2f17968335e9f54b0e70030f339ddc47d4",
          "blockNumber": "0x7454a2",
          "transactionHash": "0xf0edd1096a0eba84018a069738a40d6bfc6e628133c869325a3a0863c8472918",
          "transactionIndex": "0x4c",
          "logIndex": "0x81",
          "removed": false
        }
      ],
      "logsBloom": "0x00000002000000000000000000000000000000080000000000000000000000000000000000000000000000000000000000000000000000000000000000000000000000000000000000000000000000000000000020000000000000000000000000004000000000000000000000000000000000004000000000000000000000000000000000000000000000000000000000000000000000000000000000000000000000000000000000000000000000000000000000000000000000000400800000001000000000000000000000000000000000000000000000000000000000000000000000000000000000000000000000000000000008000000000000000000",
      "type": "0x2",
      "transactionHash": "0xf0edd1096a0eba84018a069738a40d6bfc6e628133c869325a3a0863c8472918",
      "transactionIndex": "0x4c",
      "blockHash": "0x6b2d61291713097c02ff8499a6eaab2f17968335e9f54b0e70030f339ddc47d4",
      "blockNumber": "0x7454a2",
      "gasUsed": "0x832f",
      "effectiveGasPrice": "0xa7a20a7c",
      "from": "0x230449c178b6340c9e94d3b97b28b7efada1a012",
      "to": "0x803d92fa9c82d533e808e6038a84ebca5e36fc1c",
      "contractAddress": null
    }
  ],
  "libraries": [],
  "pending": [],
  "returns": {},
  "timestamp": 1738494397,
  "chain": 11155111,
  "commit": "a46c5dd"
}